:020000040800F2
:1000000000500020B91E0008DD1C0008E31C000899
:10001000E91C0008EF1C0008F51C000800000000A7
:10002000000000000000000000000000FB1C0008B1
:10003000071D000800000000131D00081F1D000818
:10004000011F0008011F0008011F0008011F000810
:10005000011F0008011F0008011F0008011F000800
:10006000011F0008011F0008011F0008011F0008F0
:10007000011F0008011F0008011F0008011F0008E0
:10008000011F0008011F0008011F0008011F0008D0
:10009000011F0008011F0008011F0008011F0008C0
:1000A000011F0008011F0008011F0008011F0008B0
:1000B000011F0008011F0008011F0008011F0008A0
:1000C000011F0008011F0008011F0008011F000890
:1000D000011F0008011F0008011F0008011F000880
:1000E000011F0008011F0008011F00080000000098
:1000F0000000000000000000000000000000000000
:0C01000000000000000000005FF808F1A3
:1001100010B5054C237833B9044B13B10448AFF341
:1001200000800123237010BDE801002000000000C2
:10013000E474000808B5034B1BB103490348AFF34F
:10014000008008BD00000000EC010020E4740008FD
:10015000034613F8012B002AFBD1181A0138704707
:1001600081F0004102E000BF83F0004330B54FEA68
:1001700041044FEA430594EA050F08BF90EA020FD5
:100180001FBF54EA000C55EA020C7FEA645C7FEA68
:10019000655C00F0E2804FEA5454D4EB5555B8BF8B
:1001A0006D420CDD2C4480EA020281EA030382EAFC
:1001B000000083EA010180EA020281EA0303362D8E
:1001C00088BF30BD11F0004F4FEA01314FF4801C61
:1001D0004CEA113102D0404261EB410113F0004F73
:1001E0004FEA03334CEA133302D0524263EB43032A
:1001F00094EA050F00F0A780A4F10104D5F1200EC8
:100200000DDB02FA0EFC22FA05F2801841F1000122
:1002100003FA0EF2801843FA05F359410EE0A5F1F6
:1002200020050EF1200E012A03FA0EFC28BF4CF027
:10023000020C43FA05F3C01851EBE37101F00045DD
:1002400007D54FF0000EDCF1000C7EEB00006EEBEA
:100250000101B1F5801F1BD3B1F5001F0CD3490874
:100260005FEA30004FEA3C0C04F101044FEA4452CB
:1002700012F5800F80F09A80BCF1004F08BF5FEA52
:10028000500C50F1000041EB045141EA050130BD32
:100290005FEA4C0C404141EB0101013C28BFB1F544
:1002A000801FE9D291F0000F04BF01460020B1FA8F
:1002B00081F308BF2033A3F10B03B3F120020CDA62
:1002C0000C3208DD02F1140CC2F10C0201FA0CF040
:1002D00021FA02F10CE002F11402D8BFC2F1200CA5
:1002E00001FA02F120FA0CFCDCBF41EA0C0190405B
:1002F000E41AA2BF01EB0451294330BD6FEA0404A4
:100300001F3C1CDA0C340EDC04F11404C4F120028E
:1003100020FA04F001FA02F340EA030021FA04F3A0
:1003200045EA030130BDC4F10C04C4F1200220FAF7
:1003300002F001FA04F340EA0300294630BD21FA35
:1003400004F0294630BD94F0000F83F4801306BFFB
:1003500081F480110134013D4EE77FEA645C18BFEF
:100360007FEA655C29D094EA050F08BF90EA020F86
:1003700005D054EA000C04BF1946104630BD91EA7E
:10038000030F1EBF0021002030BD5FEA545C05D181
:100390004000494128BF41F0004130BD14F58004C0
:1003A0003CBF01F5801130BD01F0004545F0FE4134
:1003B00041F470014FF0000030BD7FEA645C1ABF69
:1003C000194610467FEA655C1CBF0B46024650EAA0
:1003D000013406BF52EA033591EA030F41F40021CC
:1003E00030BD00BF90F0000F04BF0021704730B552
:1003F0004FF4806404F132044FF000054FF0000127
:1004000050E700BF90F0000F04BF0021704730B5E7
:100410004FF4806404F1320410F0004548BF4042BC
:100420004FF000013EE700BF42004FEAE2014FEA11
:1004300031014FEA02701FBF12F07F4393F07F4FEC
:1004400081F06051704732F07F4208BF704793F0EF
:100450007F4F04BF41F40021704730B54FF4607402
:1004600001F0004521F000411CE700BF50EA010205
:1004700008BF704730B54FF000050AE050EA0102AE
:1004800008BF704730B511F0004502D5404261EB1E
:1004900041014FF4806404F132045FEA915C3FF45F
:1004A000D8AE4FF003025FEADC0C18BF03325FEAFC
:1004B000DC0C18BF033202EBDC02C2F1200300FAAD
:1004C00003FC20FA02F001FA03FE40EA0E0021FAD2
:1004D00002F11444BDE600BF70B54FF0FF0C4CF4C0
:1004E000E06C1CEA11541DBF1CEA135594EA0C0F72
:1004F00095EA0C0F00F0DEF82C4481EA030621EAAD
:100500004C5123EA4C5350EA013518BF52EA0335E7
:1005100041F4801143F4801338D0A0FB02CE4FF099
:100520000005E1FB02E506F00042E0FB03E54FF0C9
:100530000006E1FB03569CF0000F18BF4EF0010EC1
:10054000A4F1FF04B6F5007F64F5407404D25FEABD
:100550004E0E6D4146EB060642EAC62141EA555170
:100560004FEAC52040EA5E504FEACE2EB4F1FD0CB2
:1005700088BFBCF5E06F1ED8BEF1004F08BF5FEA30
:10058000500E50F1000041EB045170BD06F00046E2
:1005900046EA010140EA020081EA0301B4EB5C048F
:1005A000C2BFD4EB0C0541EA045170BD41F4801187
:1005B0004FF0000E013C00F3AB8014F1360FDEBFAC
:1005C000002001F0004170BDC4F10004203C35DA88
:1005D0000C341BDC04F11404C4F1200500FA05F30B
:1005E00020FA04F001FA05F240EA020001F00042AC
:1005F00021F0004110EBD37021FA04F642EB060122
:100600005EEA430E08BF20EAD37070BDC4F10C044B
:10061000C4F1200500FA04F320FA05F001FA04F20F
:1006200040EA020001F0004110EBD37041F10001FB
:100630005EEA430E08BF20EAD37070BDC4F1200506
:1006400000FA05F24EEA020E20FA04F301FA05F26E
:1006500043EA020321FA04F001F0004121FA04F216
:1006600020EA020000EBD3705EEA430E08BF20EAE6
:10067000D37070BD94F0000F0FD101F00046400020
:1006800041EB010111F4801F08BF013CF7D041EAA2
:10069000060195F0000F18BF704703F000465200A6
:1006A00043EB030313F4801F08BF013DF7D043EA77
:1006B0000603704794EA0C0F0CEA135518BF95EA2D
:1006C0000C0F0CD050EA410618BF52EA4306D1D1B4
:1006D00081EA030101F000414FF0000070BD50EAD3
:1006E000410606BF1046194652EA430619D094EA5D
:1006F0000C0F02D150EA013613D195EA0C0F05D147
:1007000052EA03361CBF104619460AD181EA03019A
:1007100001F0004141F0FE4141F470014FF0000052
:1007200070BD41F0FE4141F4780170BD70B54FF0ED
:10073000FF0C4CF4E06C1CEA11541DBF1CEA13556D
:1007400094EA0C0F95EA0C0F00F0A7F8A4EB05044F
:1007500081EA030E52EA03354FEA013100F0888046
:100760004FEA03334FF0805545EA131343EA12630F
:100770004FEA022245EA111545EA10654FEA0026C4
:100780000EF000419D4208BF964244F1FD0404F57D
:10079000407402D25B084FEA3202B61A65EB0305D9
:1007A0005B084FEA32024FF480104FF4002CB6EB96
:1007B000020E75EB030E22BFB61A754640EA0C0016
:1007C0005B084FEA3202B6EB020E75EB030E22BF56
:1007D000B61A754640EA5C005B084FEA3202B6EB97
:1007E000020E75EB030E22BFB61A754640EA9C0056
:1007F0005B084FEA3202B6EB020E75EB030E22BF26
:10080000B61A754640EADC0055EA060E18D04FEAE3
:10081000051545EA16754FEA06164FEAC30343EA83
:1008200052734FEAC2025FEA1C1CC0D111F4801F50
:100830000BD141EA00014FF000004FF0004CB6E749
:1008400011F4801F04BF01430020B4F1FD0C88BFE8
:10085000BCF5E06F3FF6AFAEB5EB030C04BFB6EBF3
:10086000020C5FEA500C50F1000041EB045170BDE6
:100870000EF0004E4EEA113114EB5C04C2BFD4EB13
:100880000C0541EA045170BD41F480114FF0000E97
:10089000013C90E645EA060E8DE60CEA135594EA13
:1008A0000C0F08BF95EA0C0F3FF43BAF94EA0C0F16
:1008B0000AD150EA01347FF434AF95EA0C0F7FF48B
:1008C00025AF104619462CE795EA0C0F06D152EADF
:1008D00003353FF4FDAE1046194622E750EA4106C3
:1008E00018BF52EA43067FF4C5AE50EA41047FF4D4
:1008F0000DAF52EA43057FF4EBAE12E74FF0FF3C39
:1009000006E000BF4FF0010C02E000BF4FF0010C09
:100910004DF804CD4FEA410C7FEA6C5C4FEA430C82
:1009200018BF7FEA6C5C1BD001B050EA410C0CBFD1
:1009300052EA430C91EA030F02BF90EA020F002033
:10094000704710F1000F91EA030F58BF994208BF9A
:1009500090422CBFD8176FEAE37040F00100704757
:100960004FEA410C7FEA6C5C02D150EA013C07D1AE
:100970004FEA430C7FEA6C5CD6D152EA033CD3D0F9
:100980005DF8040B704700BF8446104662468C46F3
:100990001946634600E000BF01B5FFF7B7FF002826
:1009A00048BF10F1000F01BD4DF808EDFFF7F4FF4F
:1009B0000CBF012000205DF808FB00BF4DF808EDDA
:1009C000FFF7EAFF34BF012000205DF808FB00BFFD
:1009D0004DF808EDFFF7E0FF94BF012000205DF81F
:1009E00008FB00BF4DF808EDFFF7CEFF94BF0120D4
:1009F00000205DF808FB00BF4DF808EDFFF7C4FFCD
:100A000034BF012000205DF808FB00BF4FEA410C15
:100A10007FEA6C5C02D150EA013C0AD14FEA430CF8
:100A20007FEA6C5C02D152EA033C02D14FF0000035
:100A300070474FF0010070474FEA410212F5001273
:100A400015D211D56FF47873B3EB625212D94FEA15
:100A5000C12343F0004343EA505311F0004F23FAFF
:100A600002F018BF404270474FF00000704750EA54
:100A7000013005D111F0004008BF6FF00040704711
:100A80004FF00000704700BF80F0004002E000BF60
:100A900081F0004142001FBF5FEA410392EA030F69
:100AA0007FEA226C7FEA236C6AD04FEA1262D2EBB3
:100AB0001363C1BFD218414048404140B8BF5B42B8
:100AC000192B88BF704710F0004F40F4000020F051
:100AD0007F4018BF404211F0004F41F4000121F067
:100AE0007F4118BF494292EA030F3FD0A2F10102B1
:100AF00041FA03FC10EB0C00C3F1200301FA03F1EF
:100B000000F0004302D5494260EB4000B0F5000F11
:100B100013D3B0F1807F06D340084FEA310102F1D0
:100B20000102FE2A51D2B1F1004F40EBC25008BF82
:100B300020F0010040EA03007047490040EB00004C
:100B4000013A28BFB0F5000FEDD2B0FA80FCACF14D
:100B5000080CB2EB0C0200FA0CF0AABF00EBC2507A
:100B600052421843BCBFD0401843704792F0000F68
:100B700081F4000106BF80F400000132013BB5E7BB
:100B80004FEA41037FEA226C18BF7FEA236C21D031
:100B900092EA030F04D092F0000F08BF0846704796
:100BA00090EA010F1CBF0020704712F07F4F04D164
:100BB000400028BF40F00040704712F100723CBF77
:100BC00000F50000704700F0004343F0FE4040F4A1
:100BD000000070477FEA226216BF08467FEA23635F
:100BE0000146420206BF5FEA412390EA010F40F44A
:100BF000800070474FF0000304E000BF10F0004396
:100C000048BF40425FEA000C08BF704743F096437C
:100C100001464FF000001CE050EA010208BF704797
:100C20004FF000030AE000BF50EA010208BF70471E
:100C300011F0004302D5404261EB41015FEA010C33
:100C400002BF84460146002043F0B64308BFA3F12B
:100C50008053A3F50003BCFA8CF2083AA3EBC2530D
:100C600010DB01FA02FC634400FA02FCC2F120022C
:100C7000BCF1004F20FA02F243EB020008BF20F063
:100C80000100704702F1200201FA02FCC2F12002C9
:100C900050EA4C0021FA02F243EB020008BF20EABE
:100CA000DC7070474FF0FF0C1CEAD0521EBF1CEAEC
:100CB000D15392EA0C0F93EA0C0F6FD01A4480EADA
:100CC000010C400218BF5FEA41211ED04FF00063C3
:100CD00043EA501043EA5111A0FB01310CF00040EF
:100CE000B1F5000F3EBF490041EAD3715B0040EA15
:100CF000010062F17F02FD2A1DD8B3F1004F40EBE5
:100D0000C25008BF20F00100704790F0000F0CF0B7
:100D1000004C08BF49024CEA502040EA51207F3A7B
:100D2000C2BFD2F1FF0340EAC250704740F4000056
:100D30004FF00003013A5DDC12F1190FDCBF00F047
:100D400000407047C2F10002410021FA02F1C2F1F5
:100D5000200200FA02FC5FEA310040F1000053EA91
:100D60004C0308BF20EADC70704792F0000F00F0DF
:100D7000004C02BF400010F4000F013AF9D040EAE5
:100D80000C0093F0000F01F0004C02BF490011F479
:100D9000000F013BF9D041EA0C018FE70CEAD15377
:100DA00092EA0C0F18BF93EA0C0F0AD030F0004CF7
:100DB00018BF31F0004CD8D180EA010000F00040AB
:100DC000704790F0000F17BF90F0004F084691F069
:100DD000000F91F0004F14D092EA0C0F01D14202A3
:100DE0000FD193EA0C0F03D14B0218BF084608D16C
:100DF00080EA010000F0004040F0FE4040F40000B6
:100E0000704740F0FE4040F4400070474FF0FF0C48
:100E10001CEAD0521EBF1CEAD15392EA0C0F93EA8F
:100E20000C0F69D0A2EB030280EA010C49024FEAE1
:100E3000402037D04FF0805343EA111143EA10139A
:100E40000CF000408B4238BF5B0042F17D024FF452
:100E5000000C8B4224BF5B1A40EA0C00B3EB510F2D
:100E600024BFA3EB510340EA5C00B3EB910F24BF16
:100E7000A3EB910340EA9C00B3EBD10F24BFA3EB9B
:100E8000D10340EADC001B0118BF5FEA1C1CE0D163
:100E9000FD2A3FF650AF8B4240EBC25008BF20F016
:100EA000010070470CF0004C4CEA50207F32C2BF6A
:100EB000D2F1FF0340EAC250704740F400004FF007
:100EC0000003013A37E792F0000F00F0004C02BF38
:100ED000400010F4000F013AF9D040EA0C0093F002
:100EE000000F01F0004C02BF490011F4000F013B5C
:100EF000F9D041EA0C0195E70CEAD15392EA0C0FC4
:100F000008D142027FF47DAF93EA0C0F7FF470AFFB
:100F1000084676E793EA0C0F04D14B023FF44CAF3E
:100F200008466EE730F0004C18BF31F0004CCAD1D3
:100F300030F000427FF45CAF31F000437FF43CAF0F
:100F40005FE700BF80B582B000AF7860164B174AEC
:100F50001A60154B164A5A60134B00229A60124BC6
:100F60000022DA60104B4FF480421A610E4B0022CF
:100F70005A610D4B00229A610B4B0022DA610A4B39
:100F800000221A62084801F0ABFA0346002B14BF96
:100F900001230023DBB2002B01D000F0C1F900BF18
:100FA0000837BD4680BD00BF040200200054004049
:100FB000801A060080B588B000AF7860396007F10C
:100FC000100300221A605A609A60DA603B681B685E
:100FD000164A934225D1164B9B69154A43F00803E4
:100FE0009361134B9B6903F00803FB60FB68C0230C
:100FF0003B6112237B610123BB610323FB6107F18A
:10100000100319460B4801F0E7F8094BDB69084A61
:1010100043F40013D361064BDB6903F40013BB6098
:10102000BB6800BF2037BD4680BD00BF00540040F4
:1010300000100240000C014080B586B004AF802350
:10104000FB714FF0FF33029301230193FB1D0093CB
:1010500001236B22D021054801F086FB642000F0BB
:10106000B3FF00BF0837BD4680BD00BF04020020AB
:101070002DE9B04FC2B00CAF00F044FF00F070F8A3
:1010800000F020F900F0BCF800F0EEF82F493048ED
:10109000FFF790FF2E48FFF755FFFFF7CDFF00BF8A
:1010A0002A492C4800F08CF90346012B0CBF012380
:1010B0000023DBB2002BF3D107F180031A4623494A
:1010C000244800F011FAD7E92234C7E90434D7E9FB
:1010D0002445D7E92689D7E92AABD7E92C12C7E9F5
:1010E0000212D7E92E01C7E90001D7F8C03018462F
:1010F000FFF79AF902460B4607F11C00CDE90A23D7
:10110000D7E90023CDE90823D7E90212CDE9061279
:10111000CDE904ABCDE90289CDE90045D7E9042347
:101120000D4904F093F807F11C031846FFF710F877
:1011300003469AB207F11C014FF0FF33074802F053
:1011400089FE4FF4FA7000F03FFFB5E7040200207B
:1011500058020020A8020020007500085C02002050
:1011600080B590B000AF07F118032822002118467F
:1011700004F0CFF83B1D00221A605A609A60DA60D2
:101180001A610123BB614FF48033FB6100233B6292
:101190000123BB6202237B634FF48033BB634FF4B4
:1011A000E013FB6307F11803184602F0F3F9034656
:1011B000002B14BF01230023DBB2002B01D000F071
:1011C000AFF80F237B600223BB600023FB604FF46A
:1011D00080633B6100237B613B1D0221184602F0C6
:1011E0005BFC0346002B14BF01230023DBB2002B62
:1011F00001D000F095F800BF4037BD4680BD00002B
:1012000080B500AF154B164A1A60144B154A5A6048
:10121000124B00229A60114B0022DA600F4B4FF400
:1012200080421A610D4B00225A610C4B00229A61D8
:101230000A4B0022DA61094B00221A62074801F0CA
:101240004FF90346002B14BF01230023DBB2002B10
:1012500001D000F065F800BF80BD00BF040200208F
:1012600000540040801A060080B500AF134B144AAA
:101270001A60124B4FF4E1325A60104B00229A6010
:101280000E4B0022DA600D4B00221A610B4B0C2230
:101290005A610A4B00229A61084B0022DA61074822
:1012A00002F088FD0346002B14BF01230023DBB2AC
:1012B000002B01D000F034F800BF80BD5C0200209C
:1012C0000038014080B485B000AF144B9B69134ACD
:1012D00043F020039361114B9B6903F02003FB60F3
:1012E000FB680E4B9B690D4A43F0040393610B4B63
:1012F0009B6903F00403BB60BB68084B9B69074A0A
:1013000043F008039361054B9B6903F008037B607E
:101310007B6800BF1437BD4680BC70470010024098
:1013200080B400AF72B600BFFEE70000000000000E
:1013300080B483B000AF78607B686422A3F8E820B3
:10134000796817A3D3E90023C1E93C23796816A380
:10135000D3E90023C1E91623796815A3D3E9002353
:10136000C1E91823796814A3D3E90023C1E91A233A
:1013700079680DA3D3E90023C1E9282379680CA378
:10138000D3E90023C1E92A2379680BA3D3E9002319
:10139000C1E92C237B6818460C37BD4680BC7047DA
:1013A000000000000029CC40000000E04D62503FEA
:1013B000000000C07493683F000000E051B89E3FF9
:1013C00080B588B004AF786039607B68B3F8E830E6
:1013D00002930123019307F10F0300930123752268
:1013E000D021386801F0BAFAFB7B682B45D1002385
:1013F000BB737B68B3F8E83002930123019307F1D4
:101400000E03009301236B22D021386801F0ACF960
:101410000723BB737B68B3F8E83002930123019381
:1014200007F10E03009301231922D021386801F03F
:101430009BF90023BB737B68B3F8E8300293012368
:10144000019307F10E03009301231C22D021386879
:1014500001F08AF90023BB737B68B3F8E83002938C
:101460000123019307F10E03009301231B22D021D6
:10147000386801F079F9002300E00123184610379D
:10148000BD4680BD80B582B000AF78607868FEF759
:10149000B9FF02460B461046194602F05DFE0246B1
:1014A0000B46104619460837BD4680BDB0B582B020
:1014B00000AF78600B467B807868FEF7A3FF044698
:1014C0000D46B7F902301846FEF79CFF02460B4660
:1014D0002046294602F03EFE02460B4610461946BB
:1014E0000837BD46B0BD00002DE9F04397B004AF0A
:1014F000F860B9607A60FB68B3F8E83002930E23B5
:10150000019307F11003009301233B22D021B86817
:1015100001F024FA3B7C1B021AB27B7C1BB2134302
:101520001AB27B681A80BB7C1B021AB2FB7C1BB20E
:1015300013431AB27B685A803B7D1B021AB27B7D33
:101540001BB213431AB27B689A80BB7D1B021AB28E
:10155000FB7D1BB21343FB873B7E1B021AB27B7ED3
:101560001BB213431AB27B681A84BB7E1B021AB2E9
:10157000FB7E1BB213431AB27B685A843B7F1B026B
:101580001AB27B7F1BB213431AB27B689A847B68C2
:10159000B3F900301846FEF735FF4FF00002B24BAA
:1015A000FFF7C4F802460B467968C1E902237B685D
:1015B000B3F902301846FEF725FF4FF00002AA4BA0
:1015C000FFF7B4F802460B467968C1E904237B684B
:1015D000B3F904301846FEF715FFFB68D3E93C2346
:1015E000FFF7A4F802460B467968C1E90623B7F96C
:1015F0003E301846FFF702FB03469C491846FFF7AA
:1016000005FC03469A491846FFF744FA03461A4672
:101610007B681A647B68B3F920301846FEF7F2FE47
:101620008DA3D3E90023FFF781F802460B467968C2
:10163000C1E90A237B68B3F922301846FEF7E2FEBF
:1016400085A3D3E90023FFF771F802460B467968BA
:10165000C1E90C237B68B3F924301846FEF7D2FEAB
:101660007DA3D3E90023FFF761F802460B467968B2
:10167000C1E90E2300F09EFC0246FB68D3F8F83067
:10168000D31A1846FEF7AEFE4FF00002794BFFF773
:101690004DF802460B46C7E90C2300F08BFC0246CE
:1016A000FB68C3F8F8207B68B3F900301A467B6802
:1016B000B3F9003003FB02F27B68B3F9043019463A
:1016C0007B68B3F9043001FB03F313441846FFF7BA
:1016D000D9FEC7E90A014FF000024FF00003D7E935
:1016E0000A01FFF761F90346002B19D17B68B3F9B2
:1016F00002301846FEF786FED7E90A23FFF716F8F0
:1017000002460B461046194602F04AFD54A3D3E99F
:101710000023FEF7E1FE02460B46C7E9102305E071
:101720004FF000024FF00003C7E910237B68B3F9C4
:1017300000305A427B68B3F9043019461046FFF76F
:10174000B5FE47A3D3E90023FEF7C6FE02460B46CB
:10175000C7E908234FF00002474BD7E90801FFF71C
:101760002DF90346002B0AD07B68D3E914014FF012
:101770000002424BFFF740F90346002B14D14FF013
:1017800000023E4BD7E90801FFF736F90346002B6C
:1017900015D07B68D3E914014FF00002364BFFF7F8
:1017A0000DF90346002B0AD0F968D7E90823C1E9EF
:1017B0002E237968D7E90823C1E9142316E0FB68D2
:1017C00003F1A0067B68D3E90C23D7E90C01CDE92E
:1017D0000201CDE90023D7E908233146F86800F07B
:1017E0004FF802460B467968C1E914237B68D3E9B8
:1017F0001423904623F000494FF000021F4B40464F
:101800004946FFF7F9F80346002B08D07B68D3E977
:101810000A23144683F000457B68C3E90A45FB6848
:1018200003F158047B68D3E90C23D7E90C01CDE917
:101830000201CDE90023D7E910232146F86800F022
:101840001FF802460B467968C1E9122300BF4C37E6
:10185000BD46BDE8F08300BF0000000000606040AE
:10186000F8C1631ADCA54C400000D0400000AA4338
:10187000B81E124200408F40008056C00080564083
:10188000B0B592B000AFF860B960C7E90023BB689B
:10189000D3E90823D7E91601FEF766FC02460B469A
:1018A000C7E91023BB68D3E90645D7E91023D7E978
:1018B0001801FEF711FE02460B4620462946FEF7A8
:1018C00055FC02460B46B968C1E90623BB68D3E95B
:1018D0000A45BB68D3E91001D7E91823FEF7FCFDE0
:1018E00002460B4610461946BB68D3E90C23FEF7A7
:1018F0003BFC02460B4610461946BB68D3E90E2353
:10190000FEF732FC02460B4610461946BB68D3E987
:101910000023FEF72BFC02460B4610461946D7E97A
:101920001823FEF7D9FD02460B4620462946FEF74E
:101930001DFC02460B46B968C1E90A23BB68D3E91E
:101940000C45BB68D3E91001D7E91823FEF7C4FDA5
:1019500002460B4620462946FEF706FC02460B4689
:10196000B968C1E90C23BB68D3E90E45BB68D3E96C
:101970001001D7E91823FEF7AFFD02460B462046BB
:101980002946FEF7F1FB02460B46B968C1E90E2372
:10199000BB68D3E91045BB68D3E90201D7E9182336
:1019A000FEF79AFD02460B4620462946FEF7DEFB6F
:1019B00002460B46B968C1E91023BB68D3E90A01A6
:1019C000BB68D3E90423FEF7D1FB02460B46C7E907
:1019D0000E23BB68D3E90A01D7E90E23FEF7A6FE62
:1019E00002460B46C7E90423BB68D3E90E01D7E9D9
:1019F0000E23FEF79BFE02460B46C7E90623BB6893
:101A0000D3E90623D7E90001FEF7AEFB02460B46F9
:101A1000C7E90C23BB68D3E90645D7E90401D7E938
:101A20000C23FEF759FD02460B4620462946FEF7D9
:101A30009DFB02460B46B968C1E90623BB68D3E9A2
:101A40000845D7E90601D7E90C23FEF745FD024614
:101A50000B4620462946FEF789FB02460B46B9682D
:101A6000C1E90823BB68D3E90A23C7E90A23BB6895
:101A7000D3E90C23C7E90823BB68D3E90A45D7E9B2
:101A80000401D7E90A23FEF727FD02460B4620464C
:101A90002946FEF769FB02460B46B968C1E90A23ED
:101AA000BB68D3E90C45D7E90401D7E90823FEF761
:101AB00013FD02460B4620462946FEF755FB02461B
:101AC0000B46B968C1E90C23BB68D3E90E45D7E9D9
:101AD0000601D7E90A23FEF7FFFC02460B46204623
:101AE0002946FEF741FB02460B46B968C1E90E23C1
:101AF000BB68D3E91045D7E90601D7E90823FEF70B
:101B0000EBFC02460B4620462946FEF72DFB02461B
:101B10000B46B968C1E91023BB68D3E90623104618
:101B200019464837BD46B0BD80B582B000AF786079
:101B300039607B68012B07D13B684FF6FF729342F7
:101B400002D10348FFF7F4FB00BF0837BD4680BD54
:101B5000A802002080B500AF4FF6FF710120FFF70B
:101B6000E3FF80BD80B485B000AF154B9B69144A7C
:101B700043F001039361124B9B6903F00103BB60C7
:101B8000BB680F4BDB690E4A43F08053D3610C4BAB
:101B9000DB6903F080537B607B680A4B5B68FB600A
:101BA000FB6823F0E063FB60FB6843F00073FB60BD
:101BB000044AFB68536000BF1437BD4680BC7047C1
:101BC000001002400000014080B588B000AF78608E
:101BD00007F1100300221A605A609A60DA607B688D
:101BE0001B68154A934223D1144B9B69134A43F057
:101BF00008039361114B9B6903F00803FB60FB68CA
:101C0000C0233B6112237B610323FB6107F11003B7
:101C100019460B4800F0E0FA084BDB69074A43F429
:101C20000013D361054BDB6903F40013BB60BB6891
:101C300000BF2037BD4680BD005400400010024068
:101C4000000C014080B588B000AF786007F1100348
:101C500000221A605A609A60DA607B681B681C4A2E
:101C6000934231D11B4B9B691A4A43F480439361E1
:101C7000184B9B6903F48043FB60FB68154B9B6921
:101C8000144A43F004039361124B9B6903F004036D
:101C9000BB60BB684FF400733B6102237B6103238D
:101CA000FB6107F1100319460B4800F095FA4FF459
:101CB00080633B6100237B610023BB6107F110035C
:101CC0001946054800F088FA00BF2037BD4680BDA0
:101CD00000380140001002400008014080B400AF0D
:101CE000FEE780B400AFFEE780B400AFFEE780B44B
:101CF00000AFFEE780B400AFFEE780B400AF00BFE6
:101D0000BD4680BC704780B400AF00BFBD4680BCFC
:101D1000704780B400AF00BFBD4680BC704780B53F
:101D200000AF00F035F900BF80BD80B400AF0123E3
:101D30001846BD4680BC704780B582B000AF786061
:101D4000396003F039FB034616221A604FF0FF3367
:101D500018460837BD4680BD80B582B000AF7860B8
:101D60004FF0FF317868FFF7E7FFFEE780B586B0F8
:101D700000AFF860B9607A6000237B610AE0AFF3DE
:101D800000800146BB685A1CBA60CAB21A707B69EF
:101D900001337B617A697B689A42F0DB7B68184685
:101DA0001837BD4680BD80B586B000AFF860B96019
:101DB0007A6000237B6109E0BB685A1CBA601B781B
:101DC0001846AFF300807B6901337B617A697B68D9
:101DD0009A42F1DB7B6818461837BD4680BD80B457
:101DE00083B000AF78604FF0FF3318460C37BD4624
:101DF00080BC704780B483B000AF786039603B68C6
:101E00004FF400525A60002318460C37BD4680BC80
:101E1000704780B483B000AF7860012318460C3758
:101E2000BD4680BC704780B485B000AFF860B96033
:101E30007A60002318461437BD4680BC7047000006
:101E400080B586B000AF7860144A154BD31A7B6119
:101E50007B693B61134B1B68002B02D1114B124A6B
:101E60001A60104B1A687B6813443A699A4207D289
:101E700003F0A2FA03460C221A604FF0FF3309E088
:101E8000084B1B68FB60074B1A687B681344054AC4
:101E90001360FB6818461837BD4680BD005000200F
:101EA00000040000A80300200005002080B400AF5B
:101EB00000BFBD4680BC7047FFF7F8FF0B480C49D8
:101EC0000C4A002302E0D458C4500433C4188C4296
:101ED000F9D3094A094C002301E013600432A242FD
:101EE000FBD303F06FFAFFF7C3F870470000002040
:101EF000E801002078790008E8010020FC040020B7
:101F0000FEE7000080B500AF084B1B68074A43F0AE
:101F100010031360032000F02BF90F2000F008F8E5
:101F2000FFF720FE0023184680BD00BF00200240BE
:101F300080B582B000AF7860124B1A68124B1B78E4
:101F400019464FF47A73B3FBF1F3B2FBF3F318467F
:101F500000F035F90346002B01D001230EE07B6829
:101F60000F2B0AD8002279684FF0FF3000F00BF9F0
:101F7000064A7B681360002300E0012318460837F7
:101F8000BD4680BD000000200800002004000020A5
:101F900080B400AF054B1B781A46054B1B681344F1
:101FA000034A136000BFBD4680BC70470800002094
:101FB000AC03002080B400AF024B1B681846BD463E
:101FC00080BC7047AC03002080B584B000AF78605F
:101FD000FFF7F0FFB8607B68FB60FB68B3F1FF3F81
:101FE00005D00A4B1B781A46FB681344FB6000BF00
:101FF000FFF7E0FF0246BB68D31AFA689A42F7D8A7
:1020000000BF00BF1037BD4680BD00BF08000020E4
:1020100080B485B000AF78607B6803F00703FB6095
:102020000C4BDB68BB60BA684FF6FF031340BB6024
:10203000FB681A02BB68134343F0BF6343F40033E9
:10204000BB60044ABB68D36000BF1437BD4680BC88
:10205000704700BF00ED00E080B400AF044BDB68C8
:102060001B0A03F007031846BD4680BC704700BF3B
:1020700000ED00E080B483B000AF03463960FB712F
:1020800097F90730002B0ADB3B68DAB20C4997F965
:1020900007301201D2B20B4483F800230AE03B68F8
:1020A000DAB20849FB7903F00F03043B1201D2B204
:1020B0000B441A7600BF0C37BD4680BC704700BF8A
:1020C00000E100E000ED00E080B489B000AFF8600E
:1020D000B9607A60FB6803F00703FB61FB69C3F139
:1020E0000703042B28BF0423BB61FB690433062BC1
:1020F00002D9FB69033B00E000237B614FF0FF3214
:10210000BB6902FA03F3DA43BB681A407B699A4061
:102110004FF0FF317B6901FA03F3D9437B680B4031
:10212000134318462437BD4680BC704780B582B043
:1021300000AF78607B68013BB3F1807F01D301235E
:102140000FE00A4A7B68013B53600F214FF0FF30DC
:10215000FFF790FF054B00229A60044B07221A609C
:10216000002318460837BD4680BD00BF10E000E0E0
:1021700080B582B000AF78607868FFF749FF00BF94
:102180000837BD4680BD80B586B000AF0346B96054
:102190007A60FB7300237B61FFF75EFF78617A68EA
:1021A000B9687869FFF790FF024697F90F3011463A
:1021B0001846FFF75FFF00BF1837BD4680BD80B5EA
:1021C00082B000AF78607868FFF7B0FF034618462A
:1021D0000837BD4680BD000080B48BB000AF78608A
:1021E000396000237B6200233B6269E101227B6A44
:1021F00002FA03F3FB613B681B68FA691340BB6199
:10220000BA69FB699A4240F058813B685B689A4A18
:1022100093425ED0984A934275D8984A934258D0D8
:10222000964A93426FD8964A934252D0944A934228
:1022300069D8944A93424CD0924A934263D8924AC6
:10224000934246D0904A93425DD8122B2AD8122B43
:1022500059D801A252F823F0D3220008AD22000879
:10226000BF220008012300080723000807230008F5
:102270000723000807230008072300080723000896
:102280000723000807230008072300080723000886
:10229000072300080723000807230008B5220008C9
:1022A000C9220008794A934213D02CE03B68DB68CE
:1022B0003B6229E03B68DB6804333B6224E03B6817
:1022C000DB6808333B621FE03B68DB680C333B6232
:1022D0001AE03B689B68002B02D104233B6213E0A9
:1022E0003B689B68012B05D108233B627B68FA6938
:1022F0001A6109E008233B627B68FA695A6103E0CE
:1023000000233B6200E000BFBB69FF2B01D87B6864
:1023100001E07B6804337B61BB69FF2B02D87B6AD9
:102320009B0002E07B6A083B9B003B617B691A686B
:102330000F213B6901FA03F3DB431A40396A3B6919
:1023400001FA03F31A437B691A603B685B6803F088
:102350008053002B00F0B1804D4B9B694C4A43F0F9
:10236000010393614A4B9B6903F00103BB60BB68A7
:10237000484A7B6A9B08023352F82330FB607B6A31
:1023800003F003039B000F2202FA03F3DB43FA6816
:102390001340FB607B68404A934213D07B683F4AFE
:1023A00093420DD07B683E4A934207D07B683D4AFA
:1023B000934201D1032306E0042304E0022302E058
:1023C000012300E000237A6A02F0030292009340A6
:1023D000FA681343FB602F497B6A9B080233FA6853
:1023E00041F823203B685B6803F48013002B06D080
:1023F0002D4B9A682C49BB6913438B6006E02A4B2E
:102400009A68BB69DB43284913408B603B685B6873
:1024100003F40013002B06D0234BDA682249BB6972
:102420001343CB6006E0204BDA68BB69DB431E49EF
:102430001340CB603B685B6803F40033002B06D08D
:10244000194B5A681849BB6913434B6006E0164B99
:102450005A68BB69DB43144913404B603B685B68B7
:1024600003F48033002B21D00F4B1A680E49BB694F
:1024700013430B6021E000BF000032100000311058
:1024800000002210000021100000121000001110A6
:10249000001002400000014000080140000C014013
:1024A0000010014000140140000401400B4B1A6869
:1024B000BB69DB43094913400B607B6A01337B62D4
:1024C0003B681A687B6A22FA03F3002B7FF48EAE16
:1024D00000BF00BF2C37BD4680BC704700040140E0
:1024E00080B584B000AF78607B68002B01D10123F8
:1024F0002BE17B6893F83D30DBB2002B06D17B6883
:10250000002283F83C207868FFF75EFB7B6824227A
:1025100083F83D207B681B681A687B681B6822F083
:1025200001021A607B681B681A687B681B6842F4AA
:1025300000421A607B681B681A687B681B6822F47B
:1025400000421A6001F0F0FBF8607B685B68814A2A
:10255000934207D8FB68804A934294BF012300232B
:10256000DBB206E0FB687D4A934294BF012300235F
:10257000DBB2002B01D00123E7E0FB68784AA2FB25
:1025800003239B0CBB607B681B685B6823F03F01E7
:102590007B681B68BA680A435A607B681B681B6AC1
:1025A00023F03F017B685B686A4A934202D8BB68AC
:1025B000013309E0BB684FF4967202FB03F3694AEA
:1025C000A2FB03239B0901337A6812680B43136251
:1025D0007B681B68DB6923F44F4222F0FF027B68B3
:1025E0005B685C498B4219D8FB68591E7B685B6845
:1025F0005B00B1FBF3F3591C40F6FC730B40002B5E
:102600000AD0FB68591E7B685B685B00B1FBF3F383
:102610000133C3F30B0351E004234FE07B689B6855
:10262000002B11D1FB68581E7B6859680B465B0074
:102630000B44B0FBF3F30133C3F30B03002B0CBFCC
:1026400001230023DBB212E0FB68581E7B68596847
:102650000B469B000B4499000B44B0FBF3F3013392
:10266000C3F30B03002B0CBF01230023DBB2002BB1
:1026700001D0012322E07B689B68002B0ED1FB6810
:10268000581E7B6859680B465B000B44B0FBF3F3A4
:102690000133C3F30B0343F400430FE0FB68581E00
:1026A0007B6859680B469B000B4499000B44B0FBB8
:1026B000F3F30133C3F30B0343F440437968096830
:1026C0001343CB617B681B681B6823F0C0017B68E8
:1026D000DA697B681B6A1A437B681B680A431A60C5
:1026E0007B681B689B6823F4034323F0FF037A682D
:1026F00011697A68D26811437A6812680B43936053
:102700007B681B68DB6823F0FF017B685A697B6884
:102710009B691A437B681B680A43DA607B681B6805
:102720001A687B681B6842F001021A607B6800220D
:102730001A647B68202283F83D207B6800221A639C
:102740007B68002283F83E20002318461037BD46E0
:1027500080BD00BFA08601007F841E00FF083D00F1
:1027600083DE1B43D34D621080B588B002AFF860A2
:10277000084611461A4603467B810B463B811346A9
:10278000FB80FFF717FC7861FB6893F83D30DBB204
:10279000202B40F0D9807B690093192301226D49D9
:1027A000F86800F0C1FC0346002B01D00223CCE006
:1027B000FB6893F83C30012B01D10223C5E0FB6894
:1027C000012283F83C20FB681B681B6803F00103AF
:1027D000012B07D0FB681B681A68FB681B6842F076
:1027E00001021A60FB681B681A68FB681B6822F408
:1027F00000621A60FB68212283F83D20FB684022BA
:1028000083F83E20FB6800221A64FB683A6A5A6229
:10281000FB68BA8C5A85FB685B8D9AB2FB681A8597
:10282000FB684D4ADA62F8883A8979897B690193B5
:10283000BB6A00930346F86800F0F8FA0346002BE1
:1028400052D0012381E07A69B96AF86800F086FD08
:102850000346002B0DD0FB681B6C042B07D1FB68D3
:102860001B681A68FB681B6842F400721A60012337
:102870006BE0FB685B6A1A78FB681B681A61FB688F
:102880005B6A5A1CFB685A62FB681B8D013B9AB25B
:10289000FB681A85FB685B8D9BB2013B9AB2FB68B3
:1028A0005A85FB681B685B6903F00403042B1BD18A
:1028B000FB681B8D002B17D0FB685B6A1A78FB68DE
:1028C0001B681A61FB685B6A5A1CFB685A62FB68EA
:1028D0001B8D013B9AB2FB681A85FB685B8D9BB22E
:1028E000013B9AB2FB685A85FB681B8D002BAAD16D
:1028F0007A69B96AF86800F079FD0346002B0DD0BB
:10290000FB681B6C042B07D1FB681B681A68FB680B
:102910001B6842F400721A60012316E0FB681B6812
:102920001A68FB681B6842F400721A60FB68202278
:1029300083F83D20FB68002283F83E20FB680022DC
:1029400083F83C20002300E0022318461837BD46D8
:1029500080BD00BF020010000000FFFF80B58CB0FA
:1029600002AFF860084611461A4603467B810B46C3
:102970003B811346FB8000233B62FFF71BFB786221
:10298000FB6893F83D30DBB2202B40F044827B6A39
:102990000093192301228249F86800F0C5FB034621
:1029A000002B01D0022337E2FB6893F83C30012B67
:1029B00001D1022330E2FB68012283F83C20FB684E
:1029C0001B681B6803F00103012B07D0FB681B6821
:1029D0001A68FB681B6842F001021A60FB681B68FA
:1029E0001A68FB681B6822F400621A60FB682222E6
:1029F00083F83D20FB68402283F83E20FB680022DC
:102A00001A64FB683A6B5A62FB68BA8E5A85FB6897
:102A10005B8D9AB2FB681A85FB68624ADA62F888B5
:102A20003A8979897B6A0193BB6B00930346F86806
:102A300000F092FA0346002B01D00123ECE1FB6881
:102A40001B8D002B13D10023FB61FB681B685B69A6
:102A5000FB61FB681B689B69FB61FB69FB681B688A
:102A60001A68FB681B6842F400721A60C0E1FB68D8
:102A70001B8D012B1ED1FB681B681A68FB681B6845
:102A800022F480621A6072B600BF0023BB61FB684B
:102A90001B685B69BB61FB681B689B69BB61BB69A9
:102AA000FB681B681A68FB681B6842F400721A60B6
:102AB00062B635E0FB681B8D022B1ED1FB681B68DC
:102AC0001A68FB681B6842F400621A6072B600BFA5
:102AD00000237B61FB681B685B697B61FB681B688B
:102AE0009B697B617B69FB681B681A68FB681B68D4
:102AF00022F480621A6062B612E0FB681B681A68F2
:102B0000FB681B6842F480621A6000233B61FB682B
:102B10001B685B693B61FB681B689B693B613B69A8
:102B200066E1FB681B8D032B00F21F81FB681B8D88
:102B3000012B23D17A6AB96BF86800F09FFC034639
:102B4000002B01D0012367E1FB681B681A69FB6851
:102B50005B6AD2B21A70FB685B6A5A1CFB685A62E5
:102B6000FB681B8D013B9AB2FB681A85FB685B8D85
:102B70009BB2013B9AB2FB685A8539E1FB681B8D19
:102B8000022B52D17B6A0093BB6B00220649F86886
:102B900000F0CAFA0346002B08D001233CE100BF35
:102BA000020010000000FFFF0400010072B600BF29
:102BB000FB681B681A68FB681B6842F400721A60A5
:102BC000FB681B681A69FB685B6AD2B21A70FB6803
:102BD0005B6A5A1CFB685A62FB681B8D013B9AB208
:102BE000FB681A85FB685B8D9BB2013B9AB2FB6860
:102BF0005A8562B600BFFB681B681A69FB685B6A8E
:102C0000D2B21A70FB685B6A5A1CFB685A62FB6896
:102C10001B8D013B9AB2FB681A85FB685B8D9BB2EA
:102C2000013B9AB2FB685A85E2E07B6A0093BB6B7A
:102C300000227B49F86800F077FA0346002B01D0A8
:102C40000123E9E0FB681B681A68FB681B6822F433
:102C500080621A6072B600BFFB681B681A69FB6865
:102C60005B6AD2B21A70FB685B6A5A1CFB685A62D4
:102C7000FB681B8D013B9AB2FB681A85FB685B8D74
:102C80009BB2013B9AB2FB685A85664B1B68DB0816
:102C9000654AA2FB03231A0A13469B001344DA0079
:102CA000D31A3B623B6A013B3B623B6A002B18D163
:102CB000FB6800221A63FB68202283F83D20FB6832
:102CC000002283F83E20FB681B6C43F02002FB6867
:102CD0001A6462B600BFFB68002283F83C2001231F
:102CE0009AE0FB681B685B6903F00403042BD9D1ED
:102CF000FB681B681A68FB681B6842F400721A6064
:102D0000FB681B681A69FB685B6AD2B21A70FB68C1
:102D10005B6A5A1CFB685A62FB681B8D013B9AB2C6
:102D2000FB681A85FB685B8D9BB2013B9AB2FB681E
:102D30005A8562B600BFFB681B681A69FB685B6A4C
:102D4000D2B21A70FB685B6A5A1CFB685A62FB6855
:102D50001B8D013B9AB2FB681A85FB685B8D9BB2A9
:102D6000013B9AB2FB685A8542E07A6AB96BF8680F
:102D700000F084FB0346002B01D001234CE0FB68EC
:102D80001B681A69FB685B6AD2B21A70FB685B6ADF
:102D90005A1CFB685A62FB681B8D013B9AB2FB68A8
:102DA0001A85FB685B8D9BB2013B9AB2FB685A8522
:102DB000FB681B685B6903F00403042B18D1FB68F4
:102DC0001B681A69FB685B6AD2B21A70FB685B6A9F
:102DD0005A1CFB685A62FB681B8D013B9AB2FB6868
:102DE0001A85FB685B8D9BB2013B9AB2FB685A85E2
:102DF000FB681B8D002B7FF494AEFB68202283F8C8
:102E00003D20FB68002283F83E20FB68002283F807
:102E10003C20002300E0022318462837BD4680BD31
:102E2000040001000000002089B5F81480B588B0C6
:102E300002AFF860084611461A4603467B810B46EE
:102E40003B811346FB80FB681B681A68FB681B68A4
:102E500042F480721A607B6A00933B6A00224FF052
:102E60000111F86800F060F90346002B0DD0FB68F3
:102E70001B681B6803F48073B3F5807F03D1FB6884
:102E80004FF400721A6403235FE07B89DBB21A46B9
:102E9000FB681B6802F0FE021A617B6A3A6A2D49E0
:102EA000F86800F0BBF90346002B01D001234CE089
:102EB00000237B61FB681B685B697B61FB681B68A7
:102EC0009B697B617B697A6A396AF86800F046FA27
:102ED0000346002B0DD0FB681B6C042B07D1FB684D
:102EE0001B681A68FB681B6842F400721A600123B1
:102EF0002BE0FB88012B05D13B89DAB2FB681B680C
:102F00001A6121E03B891B0A9BB2DAB2FB681B689D
:102F10001A617A6A396AF86800F020FA0346002BD1
:102F20000DD0FB681B6C042B07D1FB681B681A686B
:102F3000FB681B6842F400721A60012305E03B89BC
:102F4000DAB2FB681B681A61002318461837BD46C1
:102F500080BD00BF0200010080B588B002AFF860FC
:102F6000084611461A4603467B810B463B811346B1
:102F7000FB80FB681B681A68FB681B6842F4806270
:102F80001A60FB681B681A68FB681B6842F4807251
:102F90001A607B6A00933B6A00224FF00111F868C7
:102FA00000F0C2F80346002B0DD0FB681B681B68BD
:102FB00003F48073B3F5807F03D1FB684FF4007294
:102FC0001A640323AAE07B89DBB21A46FB681B68FC
:102FD00002F0FE021A617B6A3A6A5249F86800F010
:102FE0001DF90346002B01D0012397E000237B61EC
:102FF000FB681B685B697B61FB681B689B697B6185
:103000007B697A6A396AF86800F0A8F90346002BF0
:103010000DD0FB681B6C042B07D1FB681B681A687A
:10302000FB681B6842F400721A60012376E0FB889B
:10303000012B05D13B89DAB2FB681B681A6121E0DC
:103040003B891B0A9BB2DAB2FB681B681A617A6A79
:10305000396AF86800F082F90346002B0DD0FB684E
:103060001B6C042B07D1FB681B681A68FB681B6884
:1030700042F400721A60012350E03B89DAB2FB6827
:103080001B681A617A6A396AF86800F067F90346C2
:10309000002B0DD0FB681B6C042B07D1FB681B6851
:1030A0001A68FB681B6842F400721A60012335E05D
:1030B000FB681B681A68FB681B6842F480721A6020
:1030C0007B6A00933B6A00224FF00111F86800F020
:1030D0002BF80346002B0DD0FB681B681B6803F41C
:1030E0008073B3F5807F03D1FB684FF400721A64DC
:1030F000032313E07B89DBB243F00103DAB2FB6800
:103100001B681A617B6A3A6A0649F86800F086F81B
:103110000346002B01D0012300E000231846183796
:10312000BD4680BD0200010080B584B000AFF860EC
:10313000B9603B601346FB7148E03B68B3F1FF3F69
:1031400044D0FEF737FF0246BB69D31A3A689A4269
:1031500002D33B68002B39D1BB681B0CDBB2012BBF
:103160000DD1FB681B685B69DA43BB6813409BB2F7
:10317000002B0CBF01230023DBB21A460CE0FB68D6
:103180001B689B69DA43BB6813409BB2002B0CBFE2
:1031900001230023DBB21A46FB799A4216D1FB6861
:1031A00000221A63FB68202283F83D20FB6800227E
:1031B00083F83E20FB681B6C43F02002FB681A6416
:1031C000FB68002283F83C20012323E0BB681B0C32
:1031D000DBB2012B0DD1FB681B685B69DA43BB686E
:1031E00013409BB2002B0CBF01230023DBB21A4615
:1031F0000CE0FB681B689B69DA43BB6813409BB219
:10320000002B0CBF01230023DBB21A46FB799A4244
:1032100093D0002318461037BD4680BD80B584B0DA
:1032200000AFF860B9607A603B6071E0FB681B68D2
:103230005B6903F48063B3F5806F23D1FB681B687F
:103240001A68FB681B6842F400721A60FB681B680E
:103250006FF480625A61FB6800221A63FB682022C7
:1032600083F83D20FB68002283F83E20FB681B6C3E
:1032700043F00402FB681A64FB68002283F83C20D8
:10328000012367E07B68B3F1FF3F41D0FEF792FE78
:1032900002463B68D31A7A689A4202D37B68002BB5
:1032A00036D1BB681B0CDBB2012B0CD1FB681B6851
:1032B0005B69DA43BB6813409BB2002B14BF012348
:1032C0000023DBB20BE0FB681B689B69DA43BB6839
:1032D00013409BB2002B14BF01230023DBB2002B51
:1032E00016D0FB6800221A63FB68202283F83D2079
:1032F000FB68002283F83E20FB681B6C43F0200231
:10330000FB681A64FB68002283F83C20012321E05B
:10331000BB681B0CDBB2012B0CD1FB681B685B6923
:10332000DA43BB6813409BB2002B14BF0123002378
:10333000DBB20BE0FB681B689B69DA43BB68134098
:103340009BB2002B14BF01230023DBB2002B7FF4C0
:103350006DAF002318461037BD4680BD80B584B0E0
:1033600000AFF860B9607A6034E0F86800F0E3F824
:103370000346002B01D0012334E0BB68B3F1FF3FCB
:1033800028D0FEF717FE02467B68D31ABA689A4225
:1033900002D3BB68002B1DD1FB681B685B6903F07F
:1033A0008003802B16D0FB6800221A63FB68202262
:1033B00083F83D20FB68002283F83E20FB681B6CED
:1033C00043F02002FB681A64FB68002283F83C206B
:1033D000012307E0FB681B685B6903F08003802B17
:1033E000C3D1002318461037BD4680BD80B584B0D8
:1033F00000AFF860B9607A6034E0F86800F09BF8DC
:103400000346002B01D0012334E0BB68B3F1FF3F3A
:1034100028D0FEF7CFFD02467B68D31ABA689A42DD
:1034200002D3BB68002B1DD1FB681B685B6903F0EE
:103430000403042B16D0FB6800221A63FB682022C9
:1034400083F83D20FB68002283F83E20FB681B6C5C
:1034500043F02002FB681A64FB68002283F83C20DA
:10346000012307E0FB681B685B6903F00403042B7E
:10347000C3D1002318461037BD4680BD80B584B047
:1034800000AFF860B9607A6049E0FB681B685B696F
:1034900003F01003102B19D1FB681B686FF01002AA
:1034A0005A61FB6800221A63FB68202283F83D20E2
:1034B000FB68002283F83E20FB681A6CFB681A64E4
:1034C000FB68002283F83C20012330E0FEF772FD08
:1034D00002467B68D31ABA689A4202D3BB68002BB3
:1034E0001DD1FB681B685B6903F04003402B16D0BD
:1034F000FB6800221A63FB68202283F83D20FB68EA
:10350000002283F83E20FB681B6C43F02002FB681E
:103510001A64FB68002283F83C20012307E0FB6863
:103520001B685B6903F04003402BAED100231846B3
:103530001037BD4680BD80B483B000AF78607B6833
:103540001B685B6903F48063B3F5806F1BD17B68F4
:103550001B686FF480625A617B6800221A637B6883
:10356000202283F83D207B68002283F83E207B6880
:103570001B6C43F004027B681A647B68002283F8AA
:103580003C20012300E0002318460C37BD4680BCD8
:103590007047000080B586B000AF78607B68002B74
:1035A00001D1012372E27B681B6803F00103002B49
:1035B00000F08780924B5B6803F00C03042B0CD067
:1035C0008F4B5B6803F00C03082B12D18C4B5B68AC
:1035D00003F48033B3F5803F0BD1894B1B6803F4B0
:1035E0000033002B6CD07B685B68002B68D1012313
:1035F0004CE27B685B68B3F5803F06D1804B1B686B
:103600007F4A43F4803313602EE07B685B68002BB5
:103610000CD17B4B1B687A4A23F480331360784BC0
:103620001B68774A23F4802313601DE07B685B6886
:10363000B3F5A02F0CD1724B1B68714A43F4802361
:1036400013606F4B1B686E4A43F4803313600BE0CA
:103650006B4B1B686A4A23F480331360684B1B680A
:10366000674A23F4802313607B685B68002B13D0C8
:10367000FEF7A0FC386108E0FEF79CFC02463B69BF
:10368000D31A642B01D9032300E25D4B1B6803F4BA
:103690000033002BF0D014E0FEF78CFC386108E01A
:1036A000FEF788FC02463B69D31A642B01D9032339
:1036B000ECE1534B1B6803F40033002BF0D100E026
:1036C00000BF7B681B6803F00203002B63D04C4BE8
:1036D0005B6803F00C03002B0BD0494B5B6803F0D5
:1036E0000C03082B1CD1464B5B6803F48033002B82
:1036F00016D1434B1B6803F00203002B05D07B68F7
:103700001B69012B01D00123C0E13D4B1B6823F055
:10371000F8027B685B69DB00394913430B603AE0D0
:103720007B681B69002B20D0364B01221A60FEF704
:1037300041FC386108E0FEF73DFC02463B69D31AC4
:10374000022B01D90323A1E12D4B1B6803F00203D7
:10375000002BF0D02A4B1B6823F0F8027B685B69D2
:10376000DB00274913430B6015E0264B00221A604B
:10377000FEF720FC386108E0FEF71CFC02463B69BE
:10378000D31A022B01D9032380E11D4B1B6803F0E0
:103790000203002BF0D17B681B6803F00803002BA9
:1037A0003AD07B689B69002B19D0174B01221A6015
:1037B000FEF700FC386108E0FEF7FCFB02463B69BF
:1037C000D31A022B01D9032360E10D4B5B6A03F08E
:1037D0000203002BF0D0012000F0CEFA1CE00A4BCF
:1037E00000221A60FEF7E6FB38610FE0FEF7E2FB0D
:1037F00002463B69D31A022B08D9032346E100BFD6
:10380000001002400000424280044242924B5B6A38
:1038100003F00203002BE9D17B681B6803F004036B
:10382000002B00F0A6800023FB758B4BDB6903F0B7
:103830008053002B0DD1884BDB69874A43F08053BE
:10384000D361854BDB6903F08053BB60BB68012308
:10385000FB75824B1B6803F48073002B18D17F4BE0
:103860001B687E4A43F480731360FEF7A3FB386144
:1038700008E0FEF79FFB02463B69D31A642B01D98F
:10388000032303E1754B1B6803F48073002BF0D016
:103890007B68DB68012B06D16F4B1B6A6E4A43F0D5
:1038A000010313622DE07B68DB68002B0CD16A4BAF
:1038B0001B6A694A23F001031362674B1B6A664A5D
:1038C00023F0040313621CE07B68DB68052B0CD13A
:1038D000614B1B6A604A43F0040313625E4B1B6A30
:1038E0005D4A43F0010313620BE05B4B1B6A5A4ACB
:1038F00023F001031362584B1B6A574A23F0040359
:1039000013627B68DB68002B15D0FEF753FB386130
:103910000AE0FEF74FFB02463B69D31A41F28832B8
:10392000934201D90323B1E04B4B1B6A03F002031E
:10393000002BEED014E0FEF73DFB38610AE0FEF705
:1039400039FB02463B69D31A41F28832934201D9CE
:1039500003239BE0404B1B6A03F00203002BEED1D4
:10396000FB7D012B05D13C4BDB693B4A23F08053A7
:10397000D3617B68DB69002B00F08780364B5B6886
:1039800003F00C03082B61D07B68DB69022B46D166
:10399000334B00221A60FEF70DFB386108E0FEF79A
:1039A00009FB02463B69D31A022B01D903236DE0C0
:1039B000294B1B6803F00073002BF0D17B681B6A56
:1039C000B3F5803F08D1244B5B6823F400327B6859
:1039D0009B68214913434B601F4B5B6823F47412AF
:1039E0007B68196A7B685B6A0B431B4913434B6016
:1039F0001B4B01221A60FEF7DDFA386108E0FEF782
:103A0000D9FA02463B69D31A022B01D903233DE0C0
:103A1000114B1B6803F00073002BF0D035E0104B06
:103A200000221A60FEF7C6FA386108E0FEF7C2FA13
:103A300002463B69D31A022B01D9032326E0064B29
:103A40001B6803F00073002BF0D11EE07B68DB697C
:103A5000012B07D1012319E0001002400070004043
:103A6000600042420B4B5B68FB60FB6803F48032F2
:103A70007B681B6A9A4206D1FB6803F470127B686C
:103A80005B6A9A4201D0012300E0002318461837F0
:103A9000BD4680BD0010024080B584B000AF7860A4
:103AA00039607B68002B01D10123D0E06A4B1B6891
:103AB00003F007033A689A4210D9674B1B6823F05A
:103AC000070265493B6813430B60634B1B6803F0B7
:103AD00007033A689A4201D00123B8E07B681B686B
:103AE00003F00203002B20D07B681B6803F0040363
:103AF000002B05D0594B5B68584A43F4E063536090
:103B00007B681B6803F00803002B05D0534B5B68F0
:103B1000524A43F460535360504B5B6823F0F00209
:103B20007B689B684D4913434B607B681B6803F0BF
:103B30000103002B40D07B685B68012B07D1474B0A
:103B40001B6803F40033002B15D101237FE07B6851
:103B50005B68022B07D1414B1B6803F00073002BFD
:103B600009D1012373E03D4B1B6803F00203002BD6
:103B700001D101236BE0394B5B6823F003027B68C2
:103B80005B68364913434B60FEF714FAF8600AE0AD
:103B9000FEF710FA0246FB68D31A41F288329342CC
:103BA00001D9032353E02D4B5B6803F00C027B68C3
:103BB0005B689B009A42EBD1274B1B6803F007031D
:103BC0003A689A4210D2244B1B6823F0070222491C
:103BD0003B6813430B60204B1B6803F007033A68F4
:103BE0009A4201D0012332E07B681B6803F0040392
:103BF000002B08D0194B5B6823F4E0627B68DB681C
:103C0000164913434B607B681B6803F00803002BC5
:103C100009D0124B5B6823F460527B681B69DB00A0
:103C20000E4913434B6000F021F802460B4B5B68D2
:103C30001B0903F00F030A49CB5C22FA03F3094A7C
:103C40001360094B1B681846FEF772F900231846EB
:103C50001037BD4680BD00BF00200240001002406A
:103C600058750008000000200400002080B487B0D0
:103C700000AF0023FB600023BB6000237B610023B7
:103C80007B6000233B611E4B5B68FB60FB6803F0BD
:103C90000C03042B02D0082B03D027E0194B3B6107
:103CA00027E0FB689B0C03F00F03174AD35C7B6093
:103CB000FB6803F48033002B10D0114B5B685B0C66
:103CC00003F00103114AD35CBB607B680D4A03FB20
:103CD00002F2BB68B2FBF3F37B6104E07B680C4A41
:103CE00002FB03F37B617B693B6102E0054B3B61B7
:103CF00000BF3B6918461C37BD4680BC704700BFFB
:103D00000010024000127A007075000880750008EB
:103D100000093D0080B400AF024B1B681846BD4649
:103D200080BC70470000002080B500AFFFF7F2FFB5
:103D30000246054B5B681B0A03F007030349CB5C93
:103D400022FA03F3184680BD00100240687500088F
:103D500080B500AFFFF7DEFF0246054B5B68DB0A6C
:103D600003F007030349CB5C22FA03F3184680BD36
:103D7000001002406875000880B485B000AF78601C
:103D80000A4B1B680A4AA2FB03235B0A7A6802FB00
:103D900003F3FB6000BFFB685A1EFA60002BF9D1E9
:103DA00000BF00BF1437BD4680BC70470000002034
:103DB000D34D621080B582B000AF78607B68002B75
:103DC00001D1012342E07B6893F84130DBB2002B44
:103DD00006D17B68002283F840207868FDF732FF27
:103DE0007B68242283F841207B681B68DA687B6843
:103DF0001B6822F40052DA60786800F01DF97B68D5
:103E00001B681A697B681B6822F490421A617B6800
:103E10001B685A697B681B6822F02A025A617B681A
:103E20001B68DA687B681B6842F40052DA607B68C2
:103E300000225A647B68202283F841207B6820227C
:103E400083F842207B6800225A6300231846083713
:103E5000BD4680BD80B58AB002AFF860B9603B60F6
:103E60001346FB8000237B61FB6893F84130DBB293
:103E7000202B6DD1BB68002B02D0FB88002B01D119
:103E8000012366E0FB6800225A64FB68212283F864
:103E90004120FEF78FF87861FB68FA889A84FB6806
:103EA000FA88DA84FB689B68B3F5805F08D1FB6809
:103EB0001B69002B04D10023FB61BB68BB6103E0DD
:103EC000BB68FB610023BB612AE03B6800937B6910
:103ED00000228021F86800F040F80346002B01D052
:103EE000032336E0FB69002B0BD1BB691B881A4604
:103EF000FB681B68C2F308025A60BB690233BB61EE
:103F000007E0FB691A78FB681B685A60FB6901339C
:103F1000FB61FB68DB8C9BB2013B9AB2FB68DA84E5
:103F2000FB68DB8C9BB2002BCFD13B6800937B6995
:103F300000224021F86800F010F80346002B01D061
:103F4000032306E0FB68202283F84120002300E0E1
:103F5000022318462037BD4680BD80B590B000AF23
:103F6000F860B9603B601346FB7150E0BB6CB3F185
:103F7000FF3F4CD0BB6C002B07D0FEF71BF802466E
:103F80003B68D31ABA6C9A4241D2FB681B680C3367
:103F9000BB62BB6A53E8003F7B627B6A23F4D07349
:103FA000FB63FB681B680C33FA6B7A633B63396B0A
:103FB0007A6B41E80023FB62FB6A002BE5D1FB68CA
:103FC0001B6814337B617B6953E8003F3B613B69AD
:103FD00023F00103BB63FB681B681433BA6B3A62BE
:103FE000FB61F9693A6A41E80023BB61BB69002BB8
:103FF000E5D1FB68202283F84120FB68202283F86A
:104000004220FB68002283F8402003230FE0FB6876
:104010001B681A68BB681340BA689A420CBF012338
:104020000023DBB21A46FB799A429FD00023184640
:104030004037BD4680BD000080B584B000AF7860D9
:104040007B681B681B6923F440517B68DA687B68D6
:104050001B680A431A617B689A687B681B691A436C
:104060007B685B691343BB607B681B68DB6823F478
:10407000B05323F00C037A681268B9680B43D3601D
:104080007B681B685B6923F440717B689A697B6875
:104090001B680A435A617B681B682C4A934203D110
:1040A000FFF756FEF86002E0FFF73EFEF860FA68A0
:1040B00013469B0013449A001A447B685B689B007C
:1040C000B2FBF3F3224AA2FB03235B091901FA684E
:1040D00013469B0013449A001A447B685B689B005C
:1040E000B2FBF3F21A4BA3FB02035B09642000FB53
:1040F00003F3D31A1B013233154AA2FB03235B09D6
:1041000003F0F0031944FA6813469B0013449A0025
:104110001A447B685B689B00B2FBF3F20C4BA3FB79
:1041200002035B09642000FB03F3D31A1B01323343
:10413000074AA2FB03235B0903F00F027B681B689D
:104140000A449A6000BF1037BD4680BD0038014068
:104150001F85EB5100F08CBAF8B506460F4600F00B
:10416000ADF9324604460D463B4630463946FCF72B
:104170004DFC90B90022002330463946FCF71EFC66
:1041800058B101F019F921230022036000231046E1
:104190001946FCF7CBFA04460D4620462946F8BDE1
:1041A0002DE9F84FB64B21F000469E4204460D46DD
:1041B0008B4617DDB34B9E4201DC09D140B122464C
:1041C0002B4620462946FBF7D1FF04460D4605E065
:1041D000BBF1000FAC4C00F32181AC4D20462946C9
:1041E000BDE8F88FAA4B9E4211DCA3F1DE739E421C
:1041F0000ADC8BA3D3E90023FBF7B8FF0022A54B11
:10420000FCF7FAFB0028E9D14FF0FF3A27E000F075
:1042100051F9A14B04469E420D4600F3B880A3F528
:1042200050239E4200F39C8002460B46FBF79EFF04
:104230000022984BFBF798FF002206460F464FF0EE
:10424000804320462946FBF791FF02460B46304645
:104250003946FCF76BFA4FF0000A04460D46224639
:104260002B4620462946FCF737F902460B46804686
:104270008946FCF731F96CA3D3E9002306460F46C3
:10428000FCF72AF96AA3D3E90023FBF76FFF324654
:104290003B46FCF721F968A3D3E90023FBF766FF4F
:1042A00032463B46FCF718F965A3D3E90023FBF738
:1042B0005DFF32463B46FCF70FF963A3D3E90023C9
:1042C000FBF754FF32463B46FCF706F960A3D3E9FF
:1042D0000023FBF74BFF42464B46FCF7FDF85EA37D
:1042E000D3E900238046894630463946FCF7F4F886
:1042F0005BA3D3E90023FBF737FF32463B46FCF7CD
:10430000EBF859A3D3E90023FBF72EFF32463B46D7
:10431000FCF7E2F856A3D3E90023FBF725FF32466A
:104320003B46FCF7D9F854A3D3E90023FBF71CFF65
:1043300032463B46FCF7D0F802460B46404649461B
:10434000FBF714FF22462B46FCF7C6F8BAF1FF3FF5
:1043500002460B4644D120462946FBF705FF34E7C9
:1043600000224C4BFBF700FF002206460F4620467A
:104370002946484BFBF7FAFE02460B4630463946C3
:10438000FCF7D4F94FF0010A04460D4667E7434BAA
:104390009E421ADA0022424BFBF7E6FE0022064656
:1043A0000F46204629463E4BFCF796F80022394B33
:1043B000FBF7DCFE02460B4630463946FCF7B6F901
:1043C0004FF0020A04460D4649E702460B4600201C
:1043D0003449FCF7ABF94FF0030A04460D463EE7BB
:1043E000314B324E03EBCA03D3E90023FBF7BCFE8B
:1043F00022462B46FBF7B8FE06EBCA0602460B46E2
:10440000D6E90001FBF7B0FEBBF1000F04460D46F4
:10441000BFF6E4AE01F100431D46DFE6244DDDE6C4
:104420009C7500883CE4377E11DA22E33AAD903F78
:10443000EB0D76244B7BA93F513DD0A0660DB13FDB
:104440006E204CC5CD45B73FFF8300922449C23F43
:104450000D5555555555D53F2F6C6A2C44B4A2BF08
:104460009AFDDE522DDEAD3F6D9A74AFF2B0B33FD0
:10447000711623FEC671BC3FC4EB98999999C93F48
:10448000FFFF0F440000F07F182D4454FB21F9BFBB
:10449000FFFFDB3F0000F03FFFFFF23F00800340E3
:1044A0000000F83F0000F0BFA875000888750008FC
:1044B000FB21F93F21F0004319467047DFF8A0C106
:1044C0002DE9F84F3CEA010C0B4606460D460A461C
:1044D00004460ED10246FBF7FFFF02460B4630466C
:1044E0002946FBF743FE06460D4630462946BDE801
:1044F000F88F00290DDC21F0004C5CEA000CF4D0B0
:1045000039B10246FBF730FE02460B46FCF70EF9C6
:10451000E9E7121500F089800025C3F31303A2F226
:10452000FF3643F48013D2075CBF5B0003EBD47308
:104530004FEA430358BF640003EBD47362001620B4
:1045400029464FF4001476100F199F42DEBFDB1B83
:1045500039192D195B00013803EBD2734FEA54046B
:104560004FEA4202F0D1044620274FF0004C8B4224
:104570000CEB000E02DC13D1964511D8BEF1000FF2
:104580000EEB0C0056DA002854DB01F101085B1A2F
:104590004146964588BF03F1FF33A2EB0E02644407
:1045A0005B00013F03EBD2734FEA5C0C4FEA42021F
:1045B000DDD113431BD0DFF8ACA0DFF8ACB0DAE9F3
:1045C0000001DBE90023FBF7CFFDDAE900890246B1
:1045D0000B4640464946FCF7FBF940B1DAE90001D9
:1045E000DBE90023B4F1FF3F26D13C4601356B10D7
:1045F000640803F17F53EA0703F5001348BF44F052
:104600000044204603EB06516DE7E30A15396405C3
:10461000002BFAD0D8020AD5C2F1200024FA00F00B
:10462000551E944003434A1B76E71146F0E75B00B2
:104630000132EFE78846AAE7FBF798FDDAE900893F
:1046400002460B4640464946FCF7B8F920B1A11C8A
:1046500008BF01350234CAE7013424F00104C6E77B
:104660000000F07F10000020180000200000000073
:104670002DE9F84F17469246994623F000427B42B7
:10468000DFF87C813B4342EAD373434504460D4641
:1046900009D8464221F00043064343EAD676464510
:1046A0008E46834608D952464B4620462946FBF79C
:1046B0005DFD04460D4619E009F1404606F58016F9
:1046C0003E4303D1BDE8F84FFFF76ABD4FEAA97634
:1046D00006F0020653EA0B0B46EAD1760AD1022E07
:1046E00067D0032E02D13AA5D5E9004520462946D8
:1046F000BDE8F88F174306D1BEF1000F64DA36A586
:10470000D5E90045F2E742450FD1934206F1FF3665
:1047100007D1022E51D83B4B03EBC603D3E900452A
:10472000E4E7022E4DD8384BF6E74345E4D09B1A18
:10473000B3F1747F4FEA235221DAB9F1000F01DAA5
:104740003C3220DB52464B4620462946FBF7EEFF23
:10475000FFF7B0FEFFF724FD04460D46012E15D0ED
:10476000022E17D0002EC1D01DA3D3E9002320466E
:104770002946FBF7F9FC1CA3D3E9002316E01CA58E
:10478000D5E90045EAE700240025E7E705F1004305
:104790001D46ABE712A3D3E9002320462946FBF7C9
:1047A000E3FC02460B4610A1D1E90001FBF7DCFC5B
:1047B0007FE70DA5D5E9004598E70FA5D5E90045A8
:1047C00094E70024002591E709A5D5E900458DE788
:1047D000182D4454FB2109C0182D4454FB21F9BF66
:1047E000075C143326A6A13C182D4454FB21094034
:1047F000182D4454FB21F93F182D4454FB21E93F67
:104800000000F07FC8750008E0750008002B2DE956
:10481000F0471F46BBBF03F100431F4600232D2373
:1048200088B01446129A109D1370149BDDF84CA0AA
:1048300023F02008B8F1460F05D0B8F1450F00D19C
:104840000135022300E0032307AA049206AACDE95A
:1048500002A2CDE9003522463B4600F071FEB8F1D8
:10486000470F064602D1119BDB0722D5B8F1460F50
:1048700006EB050910D13378302B0AD10022002332
:1048800020463946FCF790F818B9C5F10105CAF879
:104890000050DAF8003099440022002320463946BF
:1048A000FCF782F808B1CDF81C903022079B4B45ED
:1048B00007D33046079B159A9B1B136008B0BDE8D1
:1048C000F087591C07911A70F0E70346F7B50029E5
:1048D00003F8022BB6BF2D222B2249420929427030
:1048E0002ADD0DF1070217460A2691FBF6F59446DC
:1048F00006FB151430340CF8014C0C46632C294689
:1049000002F1FF32F1DC3031ACF1020402F8011C9B
:104910002246411CBA420AD30DF10902A2EB0C0255
:10492000BC4288BF00221344181A03B0F0BD12F82D
:10493000015B01F8015FEDE7302330318370C17016
:10494000031DF1E72DE9F04F91B00C46DDF86880CA
:1049500016461F46054600F0E5FC03681846099315
:10496000FBF7F6FB00230E93D8F800300A900733CC
:1049700023F0070303F1080294F81890D4F800B06C
:10498000C8F80020D3E900A852464346C4E91223E0
:1049900028F000430B934FF0FF3250469C4B0B998D
:1049A000FCF734F870BB4FF0FF325046984B0B9930
:1049B000FCF70EF830BB0022002350464146FBF7BF
:1049C000FDFF10B12D2384F84330924A924BB9F188
:1049D000470F94BF9046984603234FF0000A236187
:1049E0002BF00403236033462146284600970FAA84
:1049F00000F0D6F9013040F090804FF0FF3011B058
:104A0000BDE8F08F5246434650464146FBF7FEFF55
:104A100048B1B8F1000FB8BF2D23804AB8BF84F861
:104A200043307F4BD3E7636809F0DF015A1C42D162
:104A300006236360002206920EAACDE904920DAA15
:104A40004BF4806303920DF13302CDE90132236010
:104A5000636852460093284643460B91FFF7D6FE03
:104A60000B99804647290D9908D1C81C02DB636861
:104A7000994240DDA9F102095FFA89F9B9F1650FA0
:104A80001FD84A46013904F150000D91FFF71DFF70
:104A90000E9A82461318012A236102DC2268D2078B
:104AA00001D5013323619DF83330002B9BD02D239A
:104AB00084F8433097E74729BCD1002BBAD10123B2
:104AC000B7E7B9F1660F18D1002963680BDD2161E2
:104AD00013B92268D00702D501330B4423614FF08C
:104AE000000AA165DFE713B92268D20701D50233B6
:104AF000F4E70123F2E74FF067090E9B994205DBCB
:104B000023682161D807EAD54B1CE7E70029CCBF11
:104B10000122C1F102021344E0E723685A0507D4D9
:104B20002369424631462846B84701302BD164E715
:104B3000B9F1650F40F2DD80D4E9120100220023B3
:104B4000FBF732FF002833D0012331462846354A8F
:104B5000B84701303FF451AFDDE90D239A4202DB43
:104B60002368D8070FD5DDE9092331462846B84721
:104B700001303FF442AF4FF0000804F11A090E9BD8
:104B8000013B434509DC23689B0700F10481E06891
:104B90000F9B9842B8BF184631E701234A46314679
:104BA0002846B84701303FF428AF08F10108E6E78E
:104BB0000D9B002B38DC012331462846194AB847A3
:104BC00001303FF41AAFDDE90D32134302D12368FF
:104BD000D907D8D5DDE9092331462846B847013041
:104BE0003FF40BAF4FF0000904F11A0A0D9B5B4232
:104BF0004B4501DC0E9B94E7012352463146284683
:104C0000B84701303FF4F9AE09F10109EEE700BF02
:104C1000FFFFEF7FF8750008FC75000800760008BC
:104C200004760008087600080E9AA36D9A42A8BF81
:104C30001A46002A914637DC4FF0000B29EAE97941
:104C400004F11A02D4F858A0AAEB09035B4533DC3F
:104C5000DDE90D239A423BDB2368DA0738D4DDE92E
:104C60000D32A2EB0309A2EB0A029145A8BF9146BF
:104C7000B9F1000F34DC4FF0000829EAE97904F1BA
:104C80001A0ADDE90D239B1AA3EB090343457FF7BD
:104C90007AAF0123524631462846B84701303FF4E7
:104CA000ACAE08F10108ECE713463146424628460F
:104CB000B8470130C0D1A0E60123314628460B9207
:104CC000B84701303FF499AE0B9A0BF1010BB9E7ED
:104CD0003146DDE909232846B8470130BFD18CE6CB
:104CE0004B463146284608EB0A02B8470130C2D18C
:104CF00083E60E9A012A01DCDB0739D501234246FF
:104D000031462846B84701303FF477AEDDE9092344
:104D100031462846B84701303FF46FAED4E912015E
:104D200000220023DDF83890FBF73EFED8B909F1E8
:104D3000FF3308F1010231462846B84701300ED151
:104D40005BE601234A4631462846B84701303FF426
:104D500054AE08F101080E9B013B4345F1DC53467C
:104D600004F15002DEE64FF0000804F11A09F2E700
:104D700001234246DFE701234A4631462846B84729
:104D800001303FF43AAE08F10108E3680F995B1A6D
:104D90004345F0DCFBE64FF0000804F11909F4E7A5
:104DA0002DE9F047164699468A680B6907469342F3
:104DB000B8BF1346336091F843200C46DDF82080DD
:104DC0000AB1013333602368990642BF3368023366
:104DD0003360256815F0060506D104F1190AE36869
:104DE00032689B1AAB422BDC94F84320131E2268D6
:104DF00018BF0123920630D44946384604F14302D5
:104E0000C047013023D02368226903F00603042B36
:104E100014BF002533684FF0000608BFE56804F1B1
:104E20001A0408BFED1A54F8123C08BF25EAE575CC
:104E30009342C4BF9B1AED18B5421AD1002008E076
:104E40000123524649463846C047013003D14FF04E
:104E5000FF30BDE8F0870135C1E73020E11881F867
:104E600043005A1C94F845102244023382F8431040
:104E7000C2E70123224649463846C0470130E6D002
:104E80000136D9E72DE9FF470F7E9146782F8046FE
:104E90000C469A460C9D01F1430207D8622F0AD8AE
:104EA000002F00F0D580582F00F0C18004F142059A
:104EB00084F842703AE0A7F16303152BF6D801A1FC
:104EC00051F823F01D4F0008314F0008AD4E000887
:104ED000AD4E0008AD4E0008AD4E0008314F000841
:104EE000AD4E0008AD4E0008AD4E0008AD4E0008B6
:104EF000375000085D4F0008F14F0008AD4E000824
:104F0000AD4E000859500008AD4E00085D4F000836
:104F1000AD4E0008AD4E0008F94F00082B681A1D71
:104F20001B682A6004F1420584F842300123A0E0A6
:104F300020682B68070603F10401296001D51E686B
:104F400003E04606FBD5B3F90060002E03DA2D23FB
:104F5000764284F843300A23594812E02B682068CF
:104F6000191D2960050601D51E6802E04106FBD522
:104F70001E886F2F0CBF08230A235148002184F894
:104F800043106568002DA8BF2168A560A4BF21F06B
:104F9000040121600EB9002D4BD01546B6FBF3F18C
:104FA00003FB1167C75D05F8017D3746BB420E461E
:104FB000F4D9082B0BD12368DE0708D52369616873
:104FC0009942DEBF302305F8013C05F1FF35521B45
:104FD00022614B4621464046CDF800A003AAFFF7C8
:104FE000DFFE01304AD14FF0FF3004B0BDE8F0875A
:104FF000236843F0200323607827324884F8457003
:10500000236829681F0651F8046B02D45F0648BF65
:10501000B6B2DF0748BF43F02003296048BF2360D2
:105020001EB9236823F0200323601023A6E7244839
:10503000E4E71546BDE72B682668181D61692860FE
:1050400035061B6801D5196002E07006FBD5198092
:10505000002315462361BCE72B6800211A1D2A6036
:105060001D686268284600F0D4F908B1401B6060F2
:1050700063682361002384F84330AAE72A4649463F
:1050800040462369D0470130ADD023689B0713D435
:10509000E068039B9842B8BF1846A6E70123324652
:1050A00049464046D04701309DD00135E368039919
:1050B0005B1AAB42F2DCEBE7002504F11906F5E7D9
:1050C0000A7600081B760008002310B50446C0E9E4
:1050D0000033C0E90433836081814366C281836108
:1050E000194608225C3000F014F90D4B246263620B
:1050F0000C4BA3620C4BE3620C4B23630C4B9C42A6
:1051000006D003F16802944202D0D0339C4205D10C
:1051100004F15800BDE8104000F078B910BD00BFA0
:105120008D520008AF520008E75200080B530008E8
:10513000B0030020024A0349034800F069B800BFE9
:1051400020000020A56D00082C00002041680C4BB9
:1051500010B59942044601D001F024FEA168094B24
:10516000994202D0204601F01DFEE168064B9942AB
:1051700004D02046BDE8104001F014BE10BD00BFB1
:10518000B0030020180400208004002010B50B4B51
:105190000B4C0C4A20461A6004210022FFF794FFB2
:1051A00004F1680001220921FFF78EFF04F1D0000D
:1051B0000222BDE810401221FFF786BFE80400205C
:1051C000B003002035510008014800F020B900BFAD
:1051D000F1040020014800F01BB900BFF1040020D9
:1051E00010B50446FFF7F0FF236A1BB1BDE810407D
:1051F000FFF7F0BF044B2362044B1B68002BF5D173
:10520000FFF7C4FFF2E700BF4D510008E80400209B
:105210002DE9F8430746884614460026D4E901954F
:10522000B9F1010905D52468002CF7D13046BDE855
:10523000F883AB89012B07D9B5F90E30013303D0C0
:1052400029463846C04706436835E9E70EB46FF093
:10525000004100B59CB01DAB0290069007910491EF
:105260000848094953F8042B0591006802A90193E5
:1052700001F018FC0022029B1A701CB05DF804EBD0
:1052800003B07047780000200802FFFF10B50C46FD
:10529000B1F90E1000F06CF80028ABBF636DA38964
:1052A0001B1823F48053ACBF6365A38110BD2DE9A7
:1052B000F0411F468B890546DB050C46164605D591
:1052C00002230022B1F90E1000F040F8A389324603
:1052D00023F48053A38128463B46B4F90E10BDE861
:1052E000F04100F057B810B50C46B1F90E1000F0BF
:1052F0002DF8431CA38915BF606523F4805343F444
:105300008053A38118BFA38110BDB1F90E1000F026
:105310000DB803460244934200D1704703F8011BC5
:10532000F9E70000004870476C01002038B5002301
:10533000054D044608462B60FCF751FD431C02D185
:105340002B6803B1236038BDEC04002038B5044657
:10535000084611460022054D2A601A46FCF763FDF7
:10536000431C02D12B6803B1236038BDEC0400203C
:1053700038B50446084611460022054D2A601A46F3
:10538000FCF7F4FC431C02D12B6803B1236038BD49
:10539000EC04002038B50446084611460022054DAD
:1053A0002A601A46FCF7FFFC431C02D12B6803B1AC
:1053B000236038BDEC040020014B1868704700BF23
:1053C0007800002070B500260C4D0D4C641BA41015
:1053D000A64209D102F086F800260A4D0A4C641B49
:1053E000A410A64205D170BD55F8043B984701367C
:1053F000EEE755F8043B98470136F2E76C79000870
:105400006C7900086C79000874790008704770475F
:105410007047034610B5C9B202449342184601D101
:10542000002003E0047801338C42F6D110BD2DE951
:10543000F74F03690C690746A3427FDB013C00F18B
:10544000140501F1140805EB8403019358F8243086
:1054500055F8242001339A42B2FBF3F64FEA840B4D
:1054600008EB840931D34FF0000E4046AC46F246BB
:1054700050F8042B93B206FB03E34FEA124E1A0CCA
:105480009BB206FB0E22AAEB0303DCF800A04FEA56
:10549000124E1FFA8AFA5344DCF800A092B2C2EB13
:1054A0001A4202EB23429BB243EA024381454FEA90
:1054B000224A4CF8043BDBD255F80B302BB9019B48
:1054C000043B9D421A462DD33C61384601F092F9C7
:1054D000002823DB29460020013658F8042BD1F898
:1054E00000C093B2C31A120C1FFA8CF00344C2EB33
:1054F0001C4202EB23429BB243EA0243C1454FEAFE
:10550000224041F8043BE8D255F8242005EB8403FF
:1055100022B9043B9D421A460AD33C61304603B08F
:10552000BDE8F08F1268043B002ACDD1013CC8E7EA
:105530001268043B002AF0D1013CEBE70020EEE7C3
:105540002DE9F04F16461F46C46999B00546CDE9CE
:105550000467DDF8948074B9102000F01DFE024647
:10556000E86120B9EF21AC4BAC4801F07BFCC0E90D
:1055700001440460C460EB69196851B15A680123A1
:1055800093404A608B60284600F0FAFE0022EB69E7
:105590001A603B1EAFBF0023012223F00043059396
:1055A000A8BFC8F80030DDF814909D4BB8BFC8F80C
:1055B000002033EA090319D142F20F73249A1360D1
:1055C000C9F31303334300F08985269B53B9954BE8
:1055D00023E0954B03930833269A1360039819B080
:1055E000BDE8F08F8F4B03930333F5E7DDE9043417
:1055F000CDE90C34DDE90C0100220023FBF7D4F9DE
:10560000804660B10123249A1360269B002B00F092
:105610006285864B269A1360013B0393DEE716AB47
:10562000019317AB00932846DDE90C2301F08AF9BA
:10563000C9F30A548246002C7ED0DDE90C010D9B93
:10564000A4F2FF34C3F3130343F07F5343F4401336
:10565000CDF84C8019460022754BFAF785FD68A3FA
:10566000D3E90023FAF738FF67A3D3E90023FAF759
:105670007DFD064620460F46FAF7C4FE64A3D3E933
:105680000023FAF729FF02460B4630463946FAF75F
:105690006DFD06460F46FBF7CFF900228346002337
:1056A00030463946FBF78AF948B15846FAF7AAFE60
:1056B00032463B46FBF778F908B90BF1FF3BBBF1EB
:1056C000160F57D8DDE90C015A4B03EBCB03D3E996
:1056D0000023FBF773F900284ED000230BF1FF3BAA
:1056E0000F93169B1B1B5A1E46BFC3F101090023D3
:1056F0004FF00009099248BF0993BBF1000F3DDB51
:10570000099BCDF838B05B44099300230A93229B90
:10571000092B67D8052BC4BF043B2293229BC8BF2B
:105720000024A3F10203D8BF0124032B00F28680DA
:10573000DFE803F02C393756DDE916431C4404F248
:105740003243202BC1BFC3F1400309FA03F904F22D
:10575000124326FA03F3D6BFC3F1200349EA03003C
:1057600006FA03F0FAF73EFE0122A1F1F873013CBC
:1057700013926FE70123B3E70F90B2E7CBF1000379
:105780000A930023A9EB0B090E93C0E700230B93A8
:10579000239B002B55DC01231A4606930893239282
:1057A0000BE00123F3E700230B93239B5B44069359
:1057B0000133012B0893B8BF012300210422E869BB
:1057C00002F114069E4240D94160284600F098FD3F
:1057D000039000283CD1024640F2AF11164BC3E6BD
:1057E0000123E1E7012400230B9422934FF0FF33C0
:1057F0000022069308931223D1E700BFAFF3008085
:1058000061436F63A787D23FB3C8608B288AC63FC6
:10581000FB799F501344D33F397600085076000837
:105820000000F07F357600082C7600080976000825
:105830000000F83F40770008A876000801230B938A
:10584000D4E7239B06930893B7E701315200B7E7EB
:10585000EB69039A1A60089B0E2B00F2A880002CBB
:1058600000F0A580BBF1000F34DD9A4B0BF00F0266
:1058700003EBC2031BF4807FD3E90034CDE910347D
:105880004FEA2B1416D0DDE90C01934B0327D3E923
:105890000823FAF74BFFCDE9040104F00F048E4E04
:1058A00054B9DDE91023DDE90401FAF73FFFCDE942
:1058B000040129E00227F2E7E10708D5DDE910013C
:1058C000D6E90023FAF708FECDE91001013764108C
:1058D0000836E5E700F0A580DDE90C01CBF1000416
:1058E0007C4B04F00F0203EBC203D3E90023FAF769
:1058F000F3FD02270023CDE90401774E2411002C8B
:1059000040F08480002BD2D1DDE90434CDE910349D
:105910000F9B002B00F08780DDE9100100226F4B08
:10592000FBF74CF800287ED0089B002B7BD0069B11
:10593000002B38DDDDE910010022694BFAF7CCFDC0
:10594000CDE90401069C0BF1FF3801373846FAF720
:1059500059FDDDE90423FAF7BFFD0022614BFAF798
:1059600005FCA1F15076CDE910011196002C5DD116
:10597000DDE9040100225C4BFAF7F6FB02460B4618
:10598000CDE904233346109AFBF736F8002840F09F
:105990009582DDE90401109A06F10043FBF70EF849
:1059A000002840F08982DDE90C34CDE90434179BEE
:1059B000002BC0F25181BBF10E0F00F34D81454B1E
:1059C00003EBCB03D3E90034CDE90634239B002B52
:1059D00080F2DA80089B002B00F3D68040F06B82C7
:1059E000DDE906010022404BFAF776FDDDE90423EC
:1059F000FAF7F8FF089C2646002840F04182312340
:105A0000039F0BF1010B07F8013B3DE2E20705D5CF
:105A1000D6E90023FAF760FD012301376410083648
:105A20006DE7022770E7D846089C8FE70399294B5A
:105A3000214412910B9903EBC403DDE9106753E98C
:105A40000223002954D000202849FAF76FFE3B4674
:105A50003246FAF789FBCDE91001039FDDE9040125
:105A6000FAF7EAFF0446FAF7CDFC02460B46DDE9F9
:105A70000401FAF779FB02460B463034CDE90423E2
:105A8000DDE9102307F8014BFAF798FF002873D1DE
:105A9000DDE9042300201149FAF766FBDDE9102354
:105AA000FAF78CFF002840F0B680129B9F423FF42B
:105AB0007AAFDDE910010022094BFAF70DFD002253
:105AC000CDE91001DDE90401054BFAF705FDCDE94B
:105AD0000401C3E740770008187700080000F03F92
